:020000040800F2
:100000000000022035B800088901000895010008A9
:100010009D010008A5010008AD01000800000000D6
:10002000000000000000000000000000B1290008EE
:10003000B501000800000000A92B0008F92B0008FA
:1000400081B8000881B8000881B8000881B80008AC
:1000500081B8000881B8000881B8000881B800089C
:1000600081B8000881B8000881B8000881B800088C
:1000700081B8000881B8000881B8000881B800087C
:1000800081B8000881B8000881B8000881B800086C
:1000900081B8000881B8000881B8000881B800085C
:1000A00081B8000881B8000881B8000881B800084C
:1000B00081B8000881B8000881B8000881B800083C
:1000C00081B8000881B8000881B8000881B800082C
:1000D00081B8000881B8000881B80008A11A00089A
:1000E00081B8000881B8000881B8000881B800080C
:1000F00081B8000881B8000881B8000881B80008FC
:1001000081B8000881B8000881B8000881B80008EB
:1001100081B8000881B8000881B8000881B80008DB
:1001200081B8000881B8000881B8000881B80008CB
:1001300081B8000881B8000881B8000881B80008BB
:1001400081B8000881B8000881B8000881B80008AB
:1001500081B8000881B8000881B8000881B800089B
:1001600081B8000881B8000881B8000881B800088B
:1001700081B8000881B8000881B8000881B800087B
:0801800081B8000881B80008F5
:1001880080B400AFBD4680BC704700BF80B400AFEC
:10019800FEE700BF80B400AFFEE700BF80B400AF49
:1001A800FEE700BF80B400AFFEE700BF80B400AF39
:1001B800BD4680BC704700BF80B500AF4FF46053A8
:1001C800C4F202034FF46052C4F20202126842F011
:1001D80001021A604FF46053C4F202034FF00002A8
:1001E8009A604FF46053C4F202034FF46052C4F2B1
:1001F8000202126822F0847222F480321A604FF4EC
:100208006053C4F2020343F21002C2F200425A6081
:100218004FF46053C4F202034FF46052C4F2020276
:10022800126822F480221A604FF46053C4F2020369
:100238004FF00002DA6000F0CFF84FF46D43CEF2D1
:1002480000034FF000629A604FF46D43CEF2000352
:100258004FF46D42CEF20002D2F8882042F47002C8
:10026800C3F8882080BD00BF80B487B000AF4FF0CE
:1002780000033B614FF000037B614FF00203FB601A
:100288004FF00003BB604FF002037B604FF46053F4
:10029800C4F202039B6803F00C033B613B69042B27
:1002A8000DD0082B15D0002B69D140F20003C2F203
:1002B80000034FF41052C0F2F4021A6069E040F2F1
:1002C8000003C2F200034FF49052C0F27A021A609F
:1002D8005FE04FF46053C4F202035B6803F48003E9
:1002E8004FEA9353BB604FF46053C4F202035B6858
:1002F80003F03F037B60BB68002B14D04FF490538E
:10030800C0F27A037A68B3FBF2F24FF46053C4F296
:100318000203596847F6C0730B404FEA931303FB77
:1003280002F37B6113E04FF41053C0F2F4037A68D0
:10033800B3FBF2F24FF46053C4F20203596847F674
:10034800C0730B404FEA931303FB02F37B614FF436
:100358006053C4F202035B6803F440334FEA13436B
:1003680003F101034FEA4303FB607A69FB68B2FBC0
:10037800F3F240F20003C2F200031A6009E040F20F
:100388000003C2F200034FF41052C0F2F4021A60E4
:1003980000BF4FF46053C4F202039B6803F0F003FC
:1003A8004FEA131240F20403C2F200039B5CDBB273
:1003B8003B6140F20003C2F200031A683B6922FA6B
:1003C80003F240F20003C2F200031A6007F11C07AF
:1003D800BD4680BC704700BF80B483B000AF4FF00B
:1003E80000037B604FF000033B604FF46053C4F29E
:1003F80002034FF46052C4F20202126842F48032DF
:100408001A604FF46053C4F202031B6803F400330C
:100418003B607B6803F101037B603B68002B03D1E1
:100428007B68B3F5A06FECD14FF46053C4F20203BC
:100438001B6803F40033002B03D04FF001033B602B
:1004480002E04FF000033B603B68012B40F08280E4
:100458004FF46053C4F202034FF46052C4F2020234
:10046800126C42F080521A644FF4E043C4F2000365
:100478004FF4E042C4F20002126842F480421A606B
:100488004FF46053C4F202034FF46052C4F2020204
:1004980092689A604FF46053C4F202034FF46052BA
:1004A800C4F20202926842F400429A604FF4605328
:1004B800C4F202034FF46052C4F20202926842F49A
:1004C800A0529A604FF46053C4F2020345F2084206
:1004D800C0F240725A604FF46053C4F202034FF402
:1004E8006052C4F20202126842F080721A6000BFC1
:1004F8004FF46053C4F202031B6803F00073002B2F
:10050800F6D04FF47053C4F2020340F205621A6049
:100518004FF46053C4F202034FF46052C4F2020273
:10052800926822F003029A604FF46053C4F2020307
:100538004FF46052C4F20202926842F002029A60DA
:1005480000BF4FF46053C4F202039B6803F00C032E
:10055800082BF6D14FF46053C4F202034FF46052F3
:10056800C4F20202926822F400029A604FF46053C7
:10057800C4F202034FF44052C5F20002C3F88420CB
:100588004FF46053C4F202034FF46052C4F2020203
:10059800126842F080621A6000BF4FF46053C4F2E0
:1005A80002031B6803F00063002BF6D007F10C0769
:1005B800BD4680BC704700BF80B400AFBD4680BC5C
:1005C800704700BF80B500AF02F0DCFAFEE700BF5D
:1005D80080B400AFBD4680BC704700BF80B582B014
:1005E80000AF7860396002F0CDFAFEE780B582B0DE
:1005F80000AF786018E07B681B787A6802F1010226
:100608007A604FF49040C4F2000019460AF05CFE8C
:1006180000BF4FF49040C4F200004FF040010BF0CF
:100628004FF80346002BF4D07B681B78002BE2D1EF
:1006380007F10807BD4680BD80B582B000AF03460C
:10064800FB714FF40050C4F2010005F079FF00BFC0
:100658004FF40050C4F201004FF0020106F052FAC4
:100668000346002BF4D04FF40050C4F2010006F00A
:100678000DF80346184607F10807BD4680BD00BFC0
:1006880080B5A6B004AF4FF0000387F887304FF06D
:10069800000387F864304FF0000387F860304FF0AC
:1006A800000387F85C304FF0000387F858304FF0AC
:1006B800000387F854304FF0000387F850304FF0AC
:1006C800000387F84C304FF0000387F848304FF0AC
:1006D800000387F844304FF0000387F840304FF0AC
:1006E800000387F83C304FF0000387F838304FF0AC
:1006F800000387F834304FF0000387F830304FF0AC
:10070800000387F82C304FF0000387F828304FF0AB
:10071800000387F824304FF0000387F820304FF0AB
:1007280000033B774CF25033C7F880304FF000039A
:10073800FB674FF47043C4F27F53BB674FF48043A9
:10074800C4F29C537B674FF4C043C4F2B8433B6781
:100758004FF40043C4F29333FB6697ED1D7AD7ED4F
:100768001E7AC7EE277AC7ED1A7A07F110034FF001
:1007780000021A6003F104034FF000021A6003F14B
:1007880004034FF000021A6003F1040307F10403A5
:100798004FF000021A6003F104034FF000021A60E0
:1007A80003F104034FF000021A6003F104034FF44D
:1007B800165001F0EFF800F073F94FF40050C4F24E
:1007C800010005F0BDFE01F00DFC01F05FFB01F03A
:1007D8003BFC01F0A5FD01F0C1FC01F0EBFC4FF47E
:1007E8009040C4F200004CF69811C0F6000101F0E8
:1007F80011FA4FF49040C4F200004CF6A411C0F670
:10080800000101F007FA4FF49040C4F200004CF6E2
:10081800A811C0F6000101F0FDF94FF49040C4F2B0
:1008280000004CF6A411C0F6000101F0F3F94FF4F2
:100838009040C4F200004CF62421C0F6000101F0FB
:10084800E9F94FF49040C4F200004CF6A411C0F648
:10085800000101F0DFF94FF0030300934FF00003AC
:1008680001934FF0000302934FF00003039340F607
:10087800F140C0F600004CF63021C0F600014FF000
:1008880082024FF0000303F06DF9034687F88730C2
:100898004FF0020300934FF0000301934FF0000361
:1008A80002934FF00003039341F20950C0F6000091
:1008B8004CF64C21C0F600014FF082024FF00003C5
:1008C80003F050F9034687F8873003F037FDFEE759
:1008D80080B485B000AFF860B9607A604FF0FF333C
:1008E800184607F11407BD4680BC704780B584B030
:1008F80000AFF860B9607A600AF0C0FF03464FF0B5
:1009080016021A604FF0FF33184607F11007BD466C
:1009180080BD00BF80B485B000AFF860B9607A6070
:100928004FF00003184607F11407BD4680BC704716
:1009380080B586B000AFF860B9607A604FF0000308
:100948007B6119E000BF4FF49043C4F200031B8899
:100958009BB203F04003002BF5D07B69BA68D3182B
:100968001B784FF49040C4F2000019460AF0ACFC22
:100978007B6903F101037B617A697B689A42E1DB59
:100988007B68184607F11807BD4680BD80B483B060
:1009980000AF78604FF00003184607F10C07BD461A
:1009A80080BC704780B584B000AF786040F29C038B
:1009B800C2F200031B68002B08D140F29C03C2F26C
:1009C800000342F65072C2F201021A6040F29C0320
:1009D800C2F200031B68FB6040F29C03C2F20003F2
:1009E8001A687B68D2186B469A4208D90AF046FF03
:1009F80003464FF00C021A604FF0FF330CE040F250
:100A08009C03C2F200031A687B68D21840F29C0368
:100A1800C2F200031A60FB68184607F11007BD46CA
:100A280080BD00BF80B582B000AF7860396038689B
:100A38004FF000014FF03C020AF03EFF3B684FF4D4
:100A480000525A604FF00003184607F10807BD46E8
:100A580080BD00BF80B483B000AF78604FF0010361
:100A6800184607F10C07BD4680BC704780B582B0B8
:100A780000AF786039600AF001FF03464FF01602B4
:100A88001A604FF0FF33184607F10807BD4680BDCE
:100A980080B400AF4FF001031846BD4680BC7047D4
:100AA80080B59CB000AF07F15803184605F046FB27
:100AB80007F14803184605F095FB4FF480704FF096
:100AC800010108F083F84FF00400C0F240004FF035
:100AD800010107F0D3FF4FF001004FF0010107F0CB
:100AE800CDFF07F14003184606F0EAFD4FF0030377
:100AF8003B644FF007033B644FF0030387F844302F
:100B08004FF0000387F8473007F140034FF40060C7
:100B1800C4F20200194606F031FD07F140034FF018
:100B28000000C4F20200194606F028FD4FF0000349
:100B3800BB644FF48033FB644FF000033B6507F15F
:100B48004803184605F020FB4FF00003BB664FF042
:100B58000003BB654FF0010387F85D304FF00003D9
:100B68007B664FF000033B664FF0050387F86C3057
:100B78004FF0010387F85C3007F158034FF4005039
:100B8800C4F20100194605F07DFA46F27040C4F23D
:100B9800020006F033F807F10403184606F0A8F936
:100BA8004FF000037B6042F24C03C4F20103BB60C8
:100BB8004FF400633B6242F69863C2F20103FB60A4
:100BC8004FF000033B614FF400537B624FF48063A6
:100BD800FB614FF00003BB614FF48073BB624FF4BD
:100BE8000033FB624FF005037B614FF000033B636A
:100BF8004FF000037B634FF00003BB634FF000032B
:100C0800FB6307F1040346F27040C4F20200194680
:100C180006F016F946F27040C4F202004FF01001D7
:100C28004FF0010206F024FB46F27040C4F20200C5
:100C38004FF0010106F0A2F94FF40050C4F2010090
:100C48004FF00A014FF001024FF0060305F09AFB3E
:100C58004FF40050C4F201004FF00B014FF00202B4
:100C68004FF0060305F08EFB4FF40050C4F201006C
:100C78004FF000014FF003024FF0060305F082FB2E
:100C88004FF40050C4F201004FF001014FF004028C
:100C98004FF0060305F076FB4FF40050C4F2010054
:100CA8004FF002014FF005024FF0060305F06AFB12
:100CB8004FF40050C4F201004FF0010105F01CFD93
:100CC8004FF40050C4F201004FF0010105F0F8FCA8
:100CD8004FF40050C4F201004FF0010105F09CFAF6
:100CE80007F17007BD4680BD80B582B000AF78605F
:100CF80000E000BF42F69863C2F201035B881AB2B3
:100D080040F6B7339A4240F3BF8042F69863C2F286
:100D180001035B881BB2A3F6431242F69863C2F242
:100D280001031B881BB2A3F6E6039A4240F3AC808A
:100D380042F69863C2F201035B881BB2A3F6431222
:100D480042F69863C2F201031B881BB2C3F50E6317
:100D580003F106039A4240F3978042F6C463C2F255
:100D680001034FF001021A8042F6C263C2F2010386
:100D780040F601121A8042F69863C2F201035A88BB
:100D880042F6A263C2F201031A804FF00000C4F2D7
:100D980001004FF0FF0108F00FFF4FF00000C4F210
:100DA80001004FF0FF0108F015FF4FF48060C4F216
:100DB80000004FF0000108F0FFFE4FF48060C4F21D
:100DC80000004FF0000108F013FF42F69863C2F2EA
:100DD80001035B881AB240F625539A4210DC4FF49F
:100DE8008060C4F200004FF0640108F0F3FE4FF495
:100DF8008060C4F200004FF0640108F007FF3EE095
:100E080042F69863C2F201035B881AB240F6255392
:100E18009A421ADD42F69863C2F201035B881AB25D
:100E280040F692639A4210DC4FF48060C4F20000EE
:100E38004FF0B20108F0CEFE4FF48060C4F200001B
:100E48004FF0B20108F0E2FE19E042F69863C2F2F0
:100E580001035B881AB240F692639A420FDD4FF4A1
:100E68008060C4F200004FF0FF0108F0B3FE4FF4B9
:100E78008060C4F200004FF0FF0108F0C7FE4FF099
:100E8800640003F007F8D5E242F69863C2F2010362
:100E98001B881AB240F6B7339A426DDC42F6986363
:100EA800C2F201035B881AB240F6B7339A4263DC98
:100EB80042F69863C2F201031B881AB240F2DC536F
:100EC8009A4259DD42F69863C2F201035B881AB26E
:100ED80040F2DC539A424FDD42F6C463C2F201038A
:100EE8004FF000021A8042F69863C2F201031A8892
:100EF80042F6C263C2F201031A8042F69863C2F254
:100F080001035A8842F6A263C2F201031A804FF025
:100F18000000C4F201004FF0000108F04DFE4FF050
:100F28000000C4F201004FF0000108F053FE4FF436
:100F38008060C4F200004FF0000108F03DFE4FF45D
:100F48008060C4F200004FF0000108F043FE4FF447
:100F58008060C4F200004FF0000108F049FE4FF431
:100F68008060C4F200004FF0000108F04FFE4FF01F
:100F7800640002F08FFF5DE242F69863C2F201035B
:100F88005B881AB240F2DC539A4200F3BF8042F603
:100F98009863C2F201035B881BB2C3F5146202F1C5
:100FA800030242F69863C2F201031B881BB2C3F521
:100FB8000B6303F10B039A4240F3A88042F698634F
:100FC800C2F201035B881BB2C3F5146303F1030388
:100FD80042F69862C2F20102128812B2A2F6BB026D
:100FE800934240F3938042F6C463C2F201034FF088
:100FF80002021A8042F6C263C2F2010340F60112ED
:101008001A8042F69863C2F201035A8842F6A26334
:10101800C2F201031A804FF00000C4F201004FF041
:10102800FF0108F0C9FD4FF00000C4F201004FF0C5
:10103800FF0108F0CFFD4FF48060C4F200004FF0CC
:10104800000108F0C7FD4FF48060C4F200004FF0C3
:10105800000108F0DBFD42F69863C2F201035B88E9
:101068001BB2B3F57A7F10DD4FF48060C4F2000044
:101078004FF0640108F0A0FD4FF48060C4F2000056
:101088004FF0640108F0B4FD3BE042F69863C2F209
:1010980001035B881BB2B3F5FA7F19DD42F698634A
:1010A800C2F201035B881BB2B3F57A7F10DC4FF400
:1010B8008060C4F200004FF0B20108F07DFD4FF4EB
:1010C8008060C4F200004FF0B20108F091FD18E012
:1010D80042F69863C2F201035B881BB2B3F5FA7F4C
:1010E8000FDC4FF48060C4F200004FF0FF0108F0FD
:1010F80063FD4FF48060C4F200004FF0FF0108F078
:1011080077FD4FF0640002F0C5FE93E142F6986364
:10111800C2F201031B881AB240F6B7339A4240F371
:10112800BF8042F69863C2F201031B881BB2A3F684
:10113800E60242F69863C2F201035B881BB2A3F68B
:101148001F139A4240F3AC8042F69863C2F201033F
:101158001B881BB2A3F6B50242F69863C2F20103DC
:101168005B881BB2C3F5116303F10F039A4240F386
:10117800978042F6C463C2F201034FF003021A805B
:1011880042F69863C2F201031A8842F6C263C2F2B9
:1011980001031A8042F6A263C2F2010340F63A1232
:1011A8001A804FF00000C4F201004FF0FF0108F070
:1011B80003FD4FF00000C4F201004FF0FF0108F0FA
:1011C80009FD4FF48060C4F200004FF0000108F000
:1011D80001FD4FF48060C4F200004FF0000108F0F8
:1011E80007FD42F69863C2F201031B881AB240F663
:1011F80025539A4210DC4FF48060C4F200004FF08F
:10120800640108F0D9FC4FF48060C4F200004FF08C
:10121800640108F0FBFC3EE042F69863C2F2010369
:101228001B881AB240F625539A421ADD42F6986393
:10123800C2F201035B881AB240F692639A4210DC4C
:101248004FF48060C4F200004FF0B20108F0B4FC23
:101258004FF48060C4F200004FF0B20108F0D6FCF1
:1012680019E042F69863C2F201031B881AB240F6ED
:1012780092639A420FDD4FF48060C4F200004FF091
:10128800FF0108F099FC4FF48060C4F200004FF0B1
:10129800FF0108F0BBFC4FF0640002F0FBFDC9E061
:1012A80042F69863C2F201031B881AB240F2DC537B
:1012B8009A423FF71EAD42F69863C2F201031B88BB
:1012C8001BB2C3F50E6202F1060242F69863C2F23F
:1012D80001035B881BB2C3F5166303F108039A4246
:1012E8007FF707AD42F69863C2F201031B881BB271
:1012F800C3F50E6303F1060342F69862C2F20102D7
:10130800528812B2A2F6681293427FF7F2AC42F604
:10131800C463C2F201034FF004021A8042F69863D4
:10132800C2F201031A8842F6C263C2F201031A80AC
:1013380042F6A263C2F2010340F63A121A804FF055
:101348000000C4F201004FF0FF0108F035FC4FF037
:101358000000C4F201004FF0FF0108F03BFC4FF41D
:101368008060C4F200004FF0000108F025FC4FF443
:101378008060C4F200004FF0000108F047FC42F61C
:101388009863C2F201031B881BB2B3F57A7F10DDA4
:101398004FF48060C4F200004FF0640108F01AFCBA
:1013A8004FF48060C4F200004FF0640108F020FCA4
:1013B8003BE042F69863C2F201031B881BB2B3F507
:1013C800FA7F19DD42F69863C2F201035B881BB20B
:1013D800B3F57A7F10DC4FF48060C4F200004FF060
:1013E800B20108F0F7FB4FF48060C4F200004FF040
:1013F800B20108F0FDFB18E042F69863C2F201035F
:101408001B881BB2B3F5FA7F0FDC4FF48060C4F27F
:1014180000004FF0FF0108F0DDFB4FF48060C4F2DC
:1014280000004FF0FF0108F0E3FB4FF0640002F00A
:1014380031FD5EE45DE400BF80B500AF42F698631D
:10144800C2F201031B881BB240F2A000C2F20000E6
:101458004CF66021C0F600011A460AF04DFA40F237
:10146800A000C2F20000FFF7C1F842F69863C2F28A
:1014780001035B881BB240F2A400C2F200004CF6E4
:101488006021C0F600011A460AF036FA40F2A400BC
:10149800C2F20000FFF7AAF842F6C263C2F20103E3
:1014A8001B881BB240F2A800C2F200004CF6602173
:1014B800C0F600011A460AF01FFA40F2A800C2F26C
:1014C8000000FFF793F842F6A263C2F201031B88FB
:1014D8001BB240F2AC00C2F200004CF66021C0F62C
:1014E80000011A460AF008FA40F2AC00C2F2000005
:1014F800FFF77CF84FF47A7002F0CCFC9EE700BF4F
:1015080080B500AF4FF49040C4F200004CF664215F
:10151800C0F6000100F07EFB42F69863C2F20103B8
:101528001B881BB240F2A000C2F200004CF66021FA
:10153800C0F600011A460AF0DFF940F2A000C2F234
:101548000000FFF753F842F69863C2F201035B8884
:101558001BB240F2A400C2F200004CF66021C0F6B3
:1015680000011A460AF0C8F940F2A400C2F20000CD
:10157800FFF73CF842F6C263C2F201031B881BB2B4
:1015880040F2A800C2F200004CF66021C0F600014B
:101598001A460AF0B1F940F2A800C2F20000FFF7BB
:1015A80025F842F6A263C2F201031B881BB240F27F
:1015B800AC00C2F200004CF66021C0F600011A46E9
:1015C8000AF09AF940F2AC00C2F20000FFF70EF8F8
:1015D80040F2EC00C2F2000000F006FF40F2EC031B
:1015E800C2F200031B881BB240F2BC00C2F200002A
:1015F8004CF66021C0F600011A460AF07DF940F267
:10160800BC00C2F20000FEF7F1FF40F2EC03C2F2A8
:1016180000035B881BB240F2C000C2F200004CF627
:101628006021C0F600011A460AF066F940F2C000CF
:10163800C2F20000FEF7DAFF40F2EC03C2F2000348
:101648009B881BB240F2C400C2F200004CF6602135
:10165800C0F600011A460AF04FF940F2C400C2F27F
:101668000000FEF7C3FF40F2EC03C2F20003DB8880
:101678001BB240F2C800C2F200004CF66021C0F66E
:1016880000011A460AF038F940F2C800C2F2000018
:10169800FEF7ACFF40F2EC03C2F200031B891BB259
:1016A80040F2CC00C2F200004CF66021C0F6000106
:1016B8001A460AF021F940F2CC00C2F20000FEF707
:1016C80095FF40F2EC03C2F200035B891BB240F2C3
:1016D800D000C2F200004CF66021C0F600011A46A4
:1016E8000AF00AF940F2D000C2F20000FEF77EFFCD
:1016F80040F2F800C2F2000000F0E6FE40F2F80303
:10170800C2F200031B881BB240F2D400C2F20000F0
:101718004CF66021C0F600011A460AF0EDF840F2D6
:10172800D400C2F20000FEF761FF40F2F803C2F2F3
:1017380000035B881BB240F2D800C2F200004CF6EE
:101748006021C0F600011A460AF0D6F840F2D80027
:10175800C2F20000FEF74AFF40F2F803C2F20003AB
:101768009B881BB240F2DC00C2F200004CF66021FC
:10177800C0F600011A460AF0BFF840F2DC00C2F2D7
:101788000000FEF733FF40F2F803C2F20003DB88E3
:101798001BB240F2E000C2F200004CF66021C0F635
:1017A80000011A460AF0A8F840F2E000C2F2000070
:1017B800FEF71CFF40F2F803C2F200031B891BB2BC
:1017C80040F2E400C2F200004CF66021C0F60001CD
:1017D8001A460AF091F840F2E400C2F20000FEF75F
:1017E80005FF40F2F803C2F200035B891BB240F226
:1017F800E800C2F200004CF67021C0F600011A465B
:101808000AF07AF840F2E800C2F20000FEF7EEFEB5
:101818004FF47A7002F03EFB74E600BF80B400AF6C
:1018280042F69863C2F201031B881AB240F6980385
:101838009A4209DC42F69863C2F201031B881AB285
:1018480040F2B6739A4213DC42F69863C2F201037F
:101858001B881AB240F62D139A4216DD42F6986399
:10186800C2F201031B881AB240F6FB139A420CDC41
:1018780042F69463C2F201031B8803F101039AB292
:1018880042F69463C2F201031A80BD4680BC7047D9
:1018980080B400AF42F69863C2F201035B881AB2C3
:1018A80040F61F139A4209DC42F69863C2F201031C
:1018B8005B881AB240F6BE039A4212DC42F698637D
:1018C800C2F201035B881AB240F64B139A4215DD47
:1018D80042F69863C2F201035B881BB2B3F51B6F33
:1018E8000CDC42F69463C2F201031B8803F1010386
:1018F8009AB242F69463C2F201031A80BD4680BCD4
:10190800704700BF80B582B000AF786000E000BFCC
:1019180042F6C463C2F201031B881BB2012B01D13A
:10192800FFF77CFF42F6C463C2F201031B881BB2B7
:10193800022B01D1FFF772FF42F6C463C2F2010322
:101948001B881BB2032B01D1FFF7A2FF42F6C46329
:10195800C2F201031B881BB2042B01D1FFF798FFC9
:1019680042F69463C2F201031B881BB2012BCEDD41
:1019780042F69463C2F201031B881BB24CF678202E
:10198800C0F60000194609F09FFF4FF0010002F071
:1019980081FABCE780B58AB000AF78604FF4802048
:1019A8004FF0010107F0E8F84FF002004FF0010195
:1019B80007F064F84FF440633B624FF0020387F886
:1019C80024304FF0020387F825304FF0000387F8E2
:1019D80026304FF0010387F8273007F120034FF432
:1019E8008060C4F20200194605F0C8FD4FF480601B
:1019F800C4F202004FF00A014FF0070205F04CFF55
:101A08004FF48060C4F202004FF00B014FF0070260
:101A180005F042FF7B683B614FF00003BB824FF04B
:101A28000003FB824FF000033B834FF00003BB83AE
:101A38004FF00C037B8307F110034FF49040C4F27E
:101A48000000194609F084FA4FF49040C4F20000EF
:101A580040F225514FF0010209F0E0FD4FF0270355
:101A68003B734FF000037B734FF00003BB734FF0E1
:101A78000103FB7307F10C03184604F01BFA4FF43B
:101A88009040C4F200004FF0010109F09DFB07F1FE
:101A98002807BD4680BD00BF80B582B000AF4FF4B7
:101AA8009040C4F2000040F2255109F03BFE034685
:101AB800002B00F0AA804FF44060C4F202004FF4FB
:101AC800804105F0D7FE4FF49040C4F2000009F0C1
:101AD8000FFC0346DAB242F69263C2F201031A70AF
:101AE80040F21C13C2F200031B78312B49D840F294
:101AF8001C13C2F200031B781A4642F69263C2F224
:101B08000103197842F6D863C2F20103995442F6E8
:101B18009263C2F201031B78302B07D14FF4406067
:101B2800C4F202004FF4004105F0A4FE40F21C1379
:101B3800C2F200031B781A4642F6D863C2F20103C8
:101B48009B5CDBB20D2B0ED140F20413C2F20003F2
:101B58004FF001021A7040F21C13C2F200034FF05A
:101B680000021A701BE040F21C13C2F200031B783B
:101B780003F10103DAB240F21C13C2F200031A7037
:101B88000DE040F20413C2F200034FF001021A7094
:101B980040F21C13C2F200034FF000021A7040F228
:101BA8000413C2F200031B78002B2ED04FF4904090
:101BB800C4F2000042F6D861C2F2010100F02AF82E
:101BC8004FF49040C4F200004CF68021C0F60001AA
:101BD80000F020F840F20413C2F200034FF00002B4
:101BE8001A704FF000037B600CE042F6D863C2F233
:101BF80001037A689B184FF000021A707B6803F1A2
:101C080001037B607B68312BEFDD07F10807BD46D8
:101C180080BD00BF80B582B000AF7860396018E041
:101C280000BF4FF49040C4F200004FF0800109F06B
:101C380047FD0346002BF4D03B681B78DBB278687D
:101C4800194609F041FB3B681B783B6803F1010327
:101C58003B603B681B78DBB2002BE1D107F108073A
:101C6800BD4680BD80B58AB000AF786039603B68FA
:101C7800002B5DD140F21413C2F200031B781A4600
:101C880007F1280082184FF0300102F8141C03F104
:101C98000103DAB240F21413C2F200031A7047E0EB
:101CA80039684CF6CD43CCF6CC43A3FB01234FEA6D
:101CB800D30213464FEA83039B184FEA4303CA1A19
:101CC80040F21813C2F200031A6040F21813C2F26D
:101CD80000031B683A68D31A3B603A684CF6CD4358
:101CE800CCF6CC43A3FB02034FEAD3033B6040F29C
:101CF8001413C2F200031B78194640F21813C2F2FB
:101D080000031B68DBB203F13003DAB207F12800E5
:101D1800431803F8142C40F21413C2F200031B7882
:101D280003F10103DAB240F21413C2F200031A708D
:101D38003B68002BB4D14FF000037B6220E040F2F7
:101D48001413C2F200031B7803F1FF33DAB240F236
:101D58001413C2F200031A7040F21413C2F2000303
:101D68001B7807F12801CB1813F8143CDAB207F1F5
:101D780008017B6ACB181A707B6A03F101037B6246
:101D880040F21413C2F200031B78002BD7D107F1DD
:101D980008027B6AD3184FF000021A7007F1080393
:101DA8004FF49040C4F200001946FFF733FF40F2A9
:101DB8001413C2F200034FF000021A704FF0000330
:101DC8003B6211E007F114023B6AD3184FF000029E
:101DD8001A7007F108023B6AD3184FF000021A7014
:101DE8003B6A03F101033B623B6A092BEADD07F119
:101DF8002807BD4680BD00BF80B582B000AF03464E
:101E0800FB7100BF40F20813C2F200031B681846BA
:101E18004FF000014FF0FF324FF0000301F0CCFA11
:101E28000346002BEED0FB799BB24FF49040C4F2EE
:101E38000000194609F048FA4FF49040C4F2000037
:101E480040F227714FF0010209F0E8FB07F108079B
:101E5800BD4680BD80B582B000AF00BF40F20C1314
:101E6800C2F200031A6807F10403104619464FF03E
:101E7800FF324FF0000301F09FFA0346002BEDD02C
:101E88003B79184607F10807BD4680BD80B582B08A
:101E980000AF4FF004004FF0010106F0EFFD4FF0E6
:101EA80001004FF0010106F0E9FD40F21403C2F20F
:101EB80000031A8840F21603C2F200031B8813437A
:101EC8009BB23B604FF002033B714FF003037B7101
:101ED8004FF00003BB714FF00103FB713B464FF419
:101EE8000060C4F20200194605F048FB3B464FF07B
:101EF8000000C4F20200194605F040FB4FF40060F0
:101F0800C4F202004FF006014FF0020205F0C4FCD3
:101F18004FF40060C4F202004FF007014FF00202D4
:101F280005F0BAFC4FF40060C4F202004FF008015B
:101F38004FF0020205F0B0FC4FF40060C4F202005A
:101F48004FF009014FF0020205F0A6FC4FF0000027
:101F5800C4F202004FF008014FF0010205F09CFCAA
:101F68004FF00000C4F202004FF009014FF00102E7
:101F780005F092FC07F10807BD4680BD80B500AFAB
:101F88004FF48060C4F200004FF0000107F014FE27
:101F98004FF48060C4F200004FF0000107F01AFE11
:101FA8004FF48060C4F200004FF0000107F020FEFB
:101FB8004FF48060C4F200004FF0000107F026FEE5
:101FC8004FF00000C4F201004FF0000107F0F4FDEB
:101FD8004FF00000C4F201004FF0000107F0FAFDD5
:101FE80080BD00BF80B584B000AF4FF002004FF055
:101FF800010106F0C1FD4FF001004FF0010106F0AC
:10200800BBFD4FF0F903FB604FF0FF037B60FB68FB
:102018009BB23B804FF000033B814FF000037B8075
:102028003B464FF48060C4F20000194607F072F98D
:102038003B464FF00000C4F20100194607F06AF968
:1020480007F11007BD4680BD80B586B000AF4FF0E0
:102058006003BB804FF00103FB804FF00003FB607F
:102068004FF000033B8207F104034FF48060C4F291
:102078000000194607F004FB4FF48060C4F200002A
:102088004FF0080107F048FE07F104034FF48060A1
:10209800C4F20000194607F071FB4FF48060C4F2E7
:1020A80000004FF0080107F053FE07F104034FF456
:1020B8008060C4F20000194607F0F4FB4FF480601A
:1020C800C4F200004FF0080107F062FE07F10403B4
:1020D8004FF48060C4F20000194607F073FC4FF417
:1020E8008060C4F200004FF0080107F06DFE4FF465
:1020F8008060C4F200004FF0010107F0A1FA07F177
:1021080004034FF00000C4F20100194607F0B8FAC2
:102118004FF00000C4F201004FF0080107F0FCFD89
:1021280007F104034FF00000C4F20100194607F05C
:1021380025FB4FF00000C4F201004FF0080107F042
:1021480007FE4FF00000C4F201004FF0010107F054
:1021580077FA07F11807BD4680BD00BF80B500AF0C
:102168004FF0D0004FF000014FF06B0200F068F81C
:102178004FF0D0004FF007014FF0190200F060F85F
:102188004FF0D0004FF006014FF01A0200F058F857
:102198004FF0D0004FF001014FF01C0200F050F852
:1021A8004FF0D0004FF018014FF01B0200F048F834
:1021B80080BD00BF80B500AF4FF0D2004FF00001E6
:1021C8004FF06B0200F03CF84FF0D2004FF00701DF
:1021D8004FF0190200F034F84FF0D2004FF006012A
:1021E8004FF01A0200F02CF84FF0D2004FF0010126
:1021F8004FF01C0200F024F84FF0D2004FF0180105
:102208004FF01B0200F01CF880BD00BF80B584B001
:1022180000AF13460246FA710A46BA717B717B79A0
:10222800FB7307F10F03DAB2F979BB790846114657
:102238001A4600F005F807F11007BD4680BD00BF3B
:1022480080B582B000AF13460246FA710A46BA71E9
:102258007B714FF4A840C4F200004FF0010105F073
:10226800CBFC00BF4FF4A840C4F200004FF00101BE
:10227800C0F2030105F070FF0346002BF2D0FB7992
:102288004FF4A840C4F2000019464FF0000205F0D0
:10229800F3FC00BF4FF4A840C4F200004FF08201E5
:1022A800C0F2070105F058FF0346002BF2D07B79F6
:1022B8004FF4A840C4F20000194605F041FE00BFE3
:1022C8004FF4A840C4F200004FF08401C0F20701A7
:1022D80005F042FF0346002BF2D0BB794FF4A8402B
:1022E800C4F20000194605F02BFE00BF4FF4A840C9
:1022F800C4F200004FF08401C0F2070105F02CFF82
:102308000346002BF2D04FF4A840C4F200004FF06F
:10231800010105F091FC07F10807BD4680BD00BF2B
:1023280080B58AB000AF4FF400104FF0010106F0FD
:1023380023FC4FF002004FF0010106F09FFB4FF025
:10234800C003BB604FF002037B734FF002033B7383
:102358004FF00103BB734FF00103FB7307F1080350
:102368004FF48060C4F20200194605F007F94FF4F3
:102378008060C4F202004FF006014FF0040205F03D
:102388008BFA4FF48060C4F202004FF007014FF05F
:10239800040205F081FA4FF00003BB834BF6FF738C
:1023A800FB834FF0C0033B844FF480637B844FF47E
:1023B8008043BB8448F2A063C0F20103BB6107F10C
:1023C80018034FF4A840C4F20000194605F0FCFABF
:1023D8004FF4A840C4F200004FF0010105F0ECFBF7
:1023E80007F12807BD4680BD80B584B000AF78608E
:1023F8004FF0D00042F6C861C2F201014FF03B0233
:102408004FF00E0300F0D0F84FF00003FB7325E007
:10241800FB7B4FEA43037A68D218FB7B4FEA430100
:1024280042F6C863C2F201035B5C5BB29BB24FEA3F
:10243800032399B2FB7B4FEA430303F1010042F601
:10244800C863C2F201031B5C5BB29BB2CB189BB2A0
:102458009BB21380FB7B03F10103FB73FB7B022B15
:10246800D6D94FF00403FB7327E0FB7B03F1FF335E
:102478004FEA43037A68D218FB7B4FEA430142F6DE
:10248800C863C2F201035B5C5BB29BB24FEA0323F1
:1024980099B2FB7B4FEA430303F1010042F6C8639C
:1024A800C2F201031B5C5BB29BB2CB189BB29BB21E
:1024B8001380FB7B03F10103FB73FB7B062BD4D951
:1024C80007F11007BD4680BD80B584B000AF7860C5
:1024D8004FF0D20042F6A461C2F201014FF03B0274
:1024E8004FF00E0300F060F84FF00003FB7325E097
:1024F800FB7B4FEA43037A68D218FB7B4FEA430120
:1025080042F6A463C2F201035B5C5BB29BB24FEA82
:10251800032399B2FB7B4FEA430303F1010042F620
:10252800A463C2F201031B5C5BB29BB2CB189BB2E3
:102538009BB21380FB7B03F10103FB73FB7B022B34
:10254800D6D94FF00403FB7327E0FB7B03F1FF337D
:102558004FEA43037A68D218FB7B4FEA430142F6FD
:10256800A463C2F201035B5C5BB29BB24FEA032334
:1025780099B2FB7B4FEA430303F1010042F6A463DF
:10258800C2F201031B5C5BB29BB2CB189BB29BB23D
:102598001380FB7B03F10103FB73FB7B062BD4D970
:1025A80007F11007BD4680BD80B582B000AF396025
:1025B8000146F971BA71BB8000BF4FF4A840C4F25C
:1025C80000004FF4003105F025FE0346002BF4D13E
:1025D8004FF4A840C4F200004FF0010105F00CFBD5
:1025E80000BF4FF4A840C4F200004FF00101C0F250
:1025F800030105F0B1FD0346002BF2D0FB794FF43F
:10260800A840C4F2000019464FF0000205F034FB60
:1026180000BF4FF4A840C4F200004FF08201C0F29E
:10262800070105F099FD0346002BF2D04FF4A840AE
:10263800C4F200004FF0010105F0BEFABB794FF477
:10264800A840C4F20000194605F07AFC00BF4FF418
:10265800A840C4F200004FF08401C0F2070105F061
:102668007BFD0346002BF2D04FF4A840C4F20000D3
:102678004FF0010105F0C0FA00BF4FF4A840C4F2C2
:1026880000004FF00101C0F2030105F065FD0346AB
:10269800002BF2D0FB794FF4A840C4F20000194691
:1026A8004FF0010205F0E8FA00BF4FF4A840C4F269
:1026B80000004FF00201C0F2030105F04DFD034692
:1026C800002BF2D031E0BB88012B0FD14FF4A8408A
:1026D800C4F200004FF0000105F0ECFA4FF4A840F6
:1026E800C4F200004FF0010105F0A6FA4FF4A8402B
:1026F800C4F200004FF04001C0F2030105F02CFDC8
:102708000346002B11D04FF4A840C4F2000005F096
:1027180027FC03461A463B681A703B6803F101031D
:102728003B60BB8803F1FF33BB80BB88002BCAD159
:102738004FF4A840C4F200004FF0010105F0BAFAC6
:1027480007F10807BD4680BD80B582B000AF0346DB
:10275800FB71FB794FF0D0004FF06B014FF0060290
:1027680000F088F807F10807BD4680BD80B584B041
:1027780000AFF871B9717A713B71F97907F10E02FE
:10278800BB79084611461A464FF00103FFF70CFFC4
:102798003B794FF0010202FA03F303F1FF32797932
:1027A8003B79CB1A03F1010302FA03F3FB733A7E78
:1027B80079793B79CB1A03F1010302FA03F33B76EB
:1027C8003A7EFB7B13403B76FB7B6FEA0303DAB26E
:1027D800BB7BDBB21340DBB2DBB2BB73BA7B3B7EA5
:1027E8001343DBB2BB7307F10E03DAB2F979BB7995
:1027F800084611461A46FFF723FD07F11007BD46A4
:1028080080BD00BF80B584B000AFF871B9717A712E
:102818003B71F97907F10E02BB79084611461A4651
:102828004FF00103FFF7C0FE3B794FF0010202FAB7
:1028380003F303F1FF3279793B79CB1A03F10103F2
:1028480002FA03F3FB73BA7BFB7B1340DBB2BB7367
:10285800BB7B1A4679793B79CB1A03F1010342FA1B
:1028680003F3DBB2BB73BA7BBB691A7007F11007BD
:10287800BD4680BD80B584B000AFF871B9717A717A
:102888003B71F97907F10F02BB79084611461A46E0
:102898004FF00103FFF788FE3B79002B0BD07B79C3
:1028A8004FF0010202FA03F3DAB2FB7BDBB2134307
:1028B800DBB2DBB20DE07B794FF0010202FA03F3E1
:1028C800DBB26FEA0303DAB2FB7BDBB21340DBB2A5
:1028D800DBB2FB7307F10F03DAB2F979BB7908466B
:1028E80011461A46FFF7ACFC07F11007BD4680BD3C
:1028F80080B500AF00F00AF80346342B02D14FF040
:10290800010301E04FF00003184680BD80B584B094
:1029180002AF07F1070300934FF0D0004FF07501A5
:102928004FF006024FF00603FFF76CFFFB791846DD
:1029380007F10807BD4680BD80B485B000AFF860D8
:10294800B9607A60FB68A3F10403FB60FB684FF091
:1029580080721A60FB68A3F10403FB60BA68FB6825
:102968001A60FB68A3F10403FB60FB684FF00002E8
:102978001A60FB68A3F11403FB607A68FB681A60AD
:10298800FB68A3F10403FB60FB686FF002021A60A6
:10299800FB68A3F12003FB60FB68184607F11407E6
:1029A800BD4680BC704700BF054B19680868B0E891
:1029B800F04F80F309884FF0000080F311887047CA
:1029C80028010020C2480068006880F3088862B6C1
:1029D80000DF00BF80B584B000AF4FF46443CEF28F
:1029E8000003FB60FB681B78DBB2BB60FB684FF041
:1029F800FF021A70FB681B78DBB2FB71FB79DBB254
:102A080003F05003DAB240F22013C2F200031A7046
:102A180040F22413C2F200034FF007021A6011E0DB
:102A280040F22413C2F200031B6803F1FF3240F2A4
:102A38002413C2F200031A60FB79DBB24FEA4303A6
:102A4800DBB2FB71FB79DBB2DBB25BB2002BE7DBFD
:102A580040F22413C2F200031B684FEA032240F23B
:102A68002413C2F200031A6040F22413C2F20003D6
:102A78001B6803F4E06240F22413C2F200031A60F8
:102A8800BB68DAB2FB681A704EF62053CEF2000328
:102A98004EF62052CEF20002126842F470021A601A
:102AA8004EF62053CEF200034EF62052CEF200022C
:102AB800126842F070421A6000F0B0F840F2180351
:102AC800C2F200034FF000021A6000F0C7F84EF699
:102AD8003473CEF200034EF63472CEF2000212685E
:102AE80042F040421A60FFF76DFF4FF000031846AE
:102AF80007F11007BD4680BD80B400AFBD4680BC5D
:102B0800704700BF80B400AF4EF60453CEF2000306
:102B18004FF080521A60BFF34F8FBFF36F8FBD46DF
:102B280080BC704780B500AF00F02CF840F2180365
:102B3800C2F200031B6803F1010240F21803C2F25B
:102B480000031A60BFF34F8FBFF36F8F80BD00BFC4
:102B580080B500AF40F21803C2F200031B6803F10E
:102B6800FF3240F21803C2F200031A6040F2180361
:102B7800C2F200031B68002B03D14FF0000000F0E5
:102B88000BF880BDEFF311804FF0500181F31188ED
:102B980070474FF00003184680F31188704700BF54
:102BA800EFF30980114B1A681EF0100F08BF20EDD3
:102BB800108A20E9F04F10602DE908404FF05000CE
:102BC80080F3118801F0CCFE4FF0000080F31188EB
:102BD800BDE8084019680868B0E8F04F1EF0100F0B
:102BE80008BFB0EC108A80F30988704728010020DC
:102BF80080B500AFFFF7C6FF01F08EFD0346002B3E
:102C080006D04EF60453CEF200034FF080521A60FD
:102C18004FF00000FFF7C0FF80BD00BF80B400AFD9
:102C28004EF21403CEF2000340F20002C2F2000298
:102C3800116844F6D352C1F26202A2FB01024FEAC4
:102C4800921202F1FF321A604EF21003CEF2000324
:102C58004FF007021A60BD4680BC7047DFF8740069
:102C6800016841F470010160704700BF90B583B0FE
:102C780000AFEFF305847C607B680F2B13D94CF60B
:102C88008423C0F600031A687B68D3181B78FB708E
:102C980040F22013C2F200031B78FA789A4202D25B
:102CA800FFF770FFFEE74EF60C53CEF200031B68E9
:102CB80003F4E06240F22413C2F200031B689A4254
:102CC80002D9FFF75FFFFEE707F10C07BD4690BD8D
:102CD80008ED00E088ED00E080B483B000AF7860D4
:102CE8007B6803F108027B685A607B684FF0FF320B
:102CF8009A607B6803F108027B68DA607B6803F1FD
:102D080008027B681A617B684FF000021A6007F1BD
:102D18000C07BD4680BC704780B483B000AF7860B4
:102D28007B684FF000021A6107F10C07BD4680BCB2
:102D3800704700BF80B485B000AF786039607B68A9
:102D48005B68FB603B68FA685A60FB689A683B6896
:102D58009A60FB689B683A685A60FB683A689A60B0
:102D68003B687A681A617B681B6803F101027B681B
:102D78001A6007F11407BD4680BC704780B485B05F
:102D880000AF786039603B681B68BB60BB68B3F113
:102D9800FF3F03D17B681B69FB600DE07B6803F193
:102DA8000803FB6002E0FB685B68FB60FB685B682C
:102DB8001A68BB689A42F6D9FB685A683B685A6039
:102DC8003B685B683A689A603B68FA689A60FB6897
:102DD8003A685A603B687A681A617B681B6803F135
:102DE80001027B681A6007F11407BD4680BC704772
:102DF80080B485B000AF78607B685B687A68926859
:102E08009A607B689B687A6852685A607B681B691D
:102E1800FB60FB685A687B689A4203D17B689A68B2
:102E2800FB685A607B684FF000021A61FB681B68F8
:102E380003F1FF32FB681A60FB681B68184607F14C
:102E48001407BD4680BC704780B584B000AF786079
:102E580039607B68FB60FB68002B02D1FFF792FEAC
:102E6800FEE7FFF75FFEFB681A68FB68DB6BF96833
:102E7800096C01FB03F3D218FB685A60FB684FF03A
:102E880000029A63FB681A68FB689A60FB681A6814
:102E9800FB68DB6B03F1FF33F968096C01FB03F393
:102EA800D218FB68DA60FB684FF0FF325A64FB689F
:102EB8004FF0FF329A643B68002B0FD1FB681B6907
:102EC800002B17D0FB6803F11003184601F064FECD
:102ED8000346012B0ED1FFF715FE0BE0FB6803F14B
:102EE80010031846FFF7F8FEFB6803F124031846A1
:102EF800FFF7F2FEFFF72CFE4FF00103184607F12B
:102F08001007BD4680BD00BF80B588B000AFF8602F
:102F1800B9601346FB714FF00003FB61FB68002B9F
:102F28002DD04FF0500002F0B7FDB861BB69002BFF
:102F380025D0FB68BA6802FB03F303F101037B6148
:102F4800786902F0A9FD0246BB691A60BB691B6873
:102F5800002B11D0BB69FA68DA63BB69BA681A64D6
:102F6800B8694FF00101FFF76FFFBB69FA7983F881
:102F78004D20BB69FB6102E0B86902F03FFEFB69C6
:102F8800002B02D1FFF7FEFDFEE7FB69184607F1AB
:102F98002007BD4680BD00BF80B584B000AF0346A2
:102FA800FB714FF0500002F077FDF860FB68002BD2
:102FB8003CD0FB684FF000025A60FB684FF00002FB
:102FC8001A60FB684FF000029A60FB684FF000023D
:102FD800DA60FB684FF000029A63FB684FF0010269
:102FE800DA63FB684FF000021A64FB684FF0FF32A7
:102FF8005A64FB684FF0FF329A64FB68FA7983F8E9
:103008004D20FB6803F110031846FFF765FEFB68C7
:1030180003F124031846FFF75FFEF8684FF000013C
:103028004FF000024FF0000300F096F8FB68002B09
:1030380002D1FFF7A7FDFEE7FB68184607F1100766
:10304800BD4680BD90B585B000AF78607B68BB6039
:10305800BB68002B02D1FFF795FDFEE7BB685C68F3
:1030680002F0E6F803469C4216D1BB68DB6803F120
:10307800FF32BB68DA60BB68DB68002B08D1B86830
:103088004FF000014FF000024FF0000300F064F829
:103098004FF00103FB6002E04FF00003FB60FB68A8
:1030A800184607F11407BD4690BD00BF90B585B01E
:1030B80000AF786039607B68BB60BB68002B02D1C9
:1030C800FFF760FDFEE7BB685C6802F0B1F80346F5
:1030D8009C4209D1BB68DB6803F10102BB68DA6076
:1030E8004FF00103FB6011E0B8684FF000013A6847
:1030F8004FF0000300F060F9F860FB68012B05D180
:10310800BB68DB6803F10102BB68DA60FB6818463C
:1031180007F11407BD4690BD80B584B000AF786054
:10312800396078684FF000014FF00202FFF7ECFEBB
:10313800F860FB68002B02D0FB683A689A63FB686A
:10314800002B02D1FFF71EFDFEE7FB68184607F1CA
:103158001007BD4680BD00BF80B588B000AFF860DD
:10316800B9607A603B604FF00003FB61FB68BB61AC
:10317800BB69002B02D1FFF705FDFEE7BB68002BFA
:1031880003D1BB691B6C002B02D14FF0010301E096
:103198004FF00003002B02D1FFF7F4FCFEE73B6879
:1031A800022B03D1BB69DB6B012B02D14FF001036A
:1031B80001E04FF00003002B03D1FFF7E3FCFEE72B
:1031C80000BFFFF7AFFCBB699A6BBB69DB6B9A4228
:1031D80002D33B68022B18D1B869B9683A6800F085
:1031E800DFFABB695B6A002B0AD0BB6903F12403D1
:1031F800184601F0D1FC0346012B01D1FFF782FCF0
:10320800FFF7A6FC4FF001035DE07B68002B04D1BB
:10321800FFF79EFC4FF0000355E0FB69002B07D138
:1032280007F11003184601F01FFD4FF00103FB6181
:10323800FFF78EFC01F0D4F8FFF774FCBB695B6CF8
:10324800B3F1FF3F03D1BB694FF000025A64BB6979
:103258009B6CB3F1FF3F03D1BB694FF000029A6446
:10326800FFF776FC07F1100207F104031046194630
:1032780001F016FD0346002B1ED1B86900F0ACFB27
:103288000346002B12D0BB6903F110027B6810467D
:10329800194601F00FFCB86900F018FB01F0B2F80C
:1032A8000346002B8CD1FFF72DFC89E7B86900F0A5
:1032B8000DFB01F0A7F883E7B86900F007FB01F000
:1032C800A1F84FF00003184607F12007BD4680BD5E
:1032D80080B588B000AFF860B9607A603B60FB6881
:1032E800BB61BB69002B02D1FFF74CFCFEE7BB6852
:1032F800002B03D1BB691B6C002B02D14FF00103DB
:1033080001E04FF00003002B02D1FFF73BFCFEE782
:103318003B68022B03D1BB69DB6B012B02D14FF059
:10332800010301E04FF00003002B02D1FFF72AFC54
:10333800FEE7FFF79BFCFFF725FC7861BB699A6BFA
:10334800BB69DB6B9A4202D33B68022B28D1B86970
:10335800B9683A6800F024FABB699B6CB3F1FF3F87
:1033680014D1BB695B6A002B16D0BB6903F1240337
:10337800184601F011FC0346002B0DD07B68002B8A
:103388000AD07B684FF001021A6005E0BB699B6CAC
:1033980003F10102BB699A644FF00103FB6102E08B
:1033A8004FF00003FB617869FFF7F6FBFB691846ED
:1033B80007F12007BD4680BD80B58AB000AFF86030
:1033C800B9607A603B604FF000037B62FB683B6248
:1033D8003B6A002B02D1FFF7D5FBFEE7BB68002B49
:1033E80003D13B6A1B6C002B02D14FF0010301E0B3
:1033F8004FF00003002B03D1FFF7C4FBFEE700BF2B
:10340800FFF790FB3B6A9B6B002B3FD03B6ADB6866
:10341800FB61386AB96800F031FA3B68002B1ED1AD
:103428003B6A9B6B03F1FF323B6A9A633B6A1B68FA
:10343800002B04D101F0FCFE02463B6A5A603B6A4D
:103448001B69002B1DD03B6A03F11003184601F0DD
:10345800A3FB0346012B14D1FFF754FB11E03B6A91
:10346800FA69DA603B6A5B6A002B0AD03B6A03F1AF
:103478002403184601F090FB0346002B01D0FFF708
:1034880041FBFFF765FB4FF001036BE07B68002B06
:1034980004D1FFF75DFB4FF0000363E07B6A002B6C
:1034A80007D107F11403184601F0DEFB4FF00103C2
:1034B8007B62FFF74DFB00F093FFFFF733FB3B6A9E
:1034C8005B6CB3F1FF3F03D13B6A4FF000025A64D3
:1034D8003B6A9B6CB3F1FF3F03D13B6A4FF000029C
:1034E8009A64FFF735FB07F1140207F1040310464D
:1034F800194601F0D5FB0346002B2CD1386A00F0A1
:1035080035FA0346002B20D03B6A1B68002B08D1F4
:10351800FFF708FB3B6A5B68184601F0BDFEFFF742
:1035280017FB3B6A03F124027B681046194601F039
:10353800C1FA386A00F0CAF900F064FF0346002BAC
:103548007FF45DAFFFF7DEFA59E7386A00F0BEF99D
:1035580000F058FF53E7386A00F0B8F900F052FF5E
:103568004FF00003184607F12807BD4680BD00BF8D
:1035780080B588B000AFF860B9607A60FB68BB615D
:10358800BB69002B02D1FFF7FDFAFEE7BB68002BF1
:1035980003D1BB691B6C002B02D14FF0010301E082
:1035A8004FF00003002B02D1FFF7ECFAFEE7FFF71C
:1035B8005DFBFFF7E7FA7861BB699B6B002B2DD0A9
:1035C800B869B96800F05AF9BB699B6B03F1FF321F
:1035D800BB699A63BB695B6CB3F1FF3F14D1BB69EC
:1035E8001B69002B16D0BB6903F11003184601F0C4
:1035F800D3FA0346002B0DD07B68002B0AD07B68DA
:103608004FF001021A6005E0BB695B6C03F101022F
:10361800BB695A644FF00103FB6102E04FF00003FD
:10362800FB617869FFF7B8FAFB69184607F12007CC
:10363800BD4680BD80B586B000AF786039607B68D4
:103648003B613B69002B02D1FFF79CFAFEE73B6820
:10365800002B03D13B691B6C002B02D14FF00103F7
:1036680001E04FF00003002B02D1FFF78BFAFEE7D1
:10367800FFF7FCFAFFF786FAF8603B699B6B002BB3
:103688000DD03B69DB68BB603869396800F0F6F833
:103698003B69BA68DA604FF001037B6102E04FF0E2
:1036A80000037B61F868FFF777FA7B69184607F132
:1036B8001807BD4680BD00BF80B584B000AF7860F4
:1036C8007B68002B02D1FFF75DFAFEE7FFF72AFAC5
:1036D8007B689B6BFB60FFF73BFAFB68184607F1BA
:1036E8001007BD4680BD00BF80B584B000AF7860CC
:1036F8007B68002B02D1FFF745FAFEE77B689B6BDE
:10370800FB60FB68184607F11007BD4680BD00BF87
:1037180080B584B000AF78607B68FB60FB68002BE5
:1037280002D1FFF72FFAFEE7F86800F0C1F9FB684D
:103738001B68184602F062FAF86802F05FFA07F1AF
:103748001007BD4680BD00BF80B483B000AF78606D
:103758007B6893F84C30184607F10C07BD4680BCCF
:10376800704700BF80B483B000AF78600B46FB7031
:103778007B68FA7883F84C2007F10C07BD4680BCBB
:10378800704700BF80B483B000AF78607B6893F85F
:103798004D30184607F10C07BD4680BC704700BF86
:1037A80080B584B000AFF860B9607A60FB681B6CC4
:1037B800002B0DD1FB681B68002B55D1FB685B689B
:1037C800184601F0DDFDFB684FF000025A604BE03F
:1037D8007B68002B1AD1FB689A68FB681B6C104643
:1037E800B9681A4608F05FF8FB689A68FB681B6CB2
:1037F800D218FB689A60FB689A68FB685B689A4213
:1038080032D3FB681A68FB689A602DE0FB68DA68B7
:10381800FB681B6C1046B9681A4608F044F8FB6848
:10382800DA68FB681B6CC3F10003D218FB68DA6026
:10383800FB68DA68FB681B689A4208D2FB685A681A
:10384800FB681B6CC3F10003D218FB68DA607B6865
:10385800022B09D1FB689B6B002B05D0FB689B6B87
:1038680003F1FF32FB689A63FB689B6B03F101026B
:10387800FB689A6307F11007BD4680BD80B582B02A
:1038880000AF786039607B681B68002B19D07B68B3
:10389800DA687B681B6CD2187B68DA607B68DA6848
:1038A8007B685B689A4203D37B681A687B68DA6036
:1038B8007B68DA687B681B6C386811461A4607F023
:1038C800F2FF07F10807BD4680BD00BF80B582B092
:1038D80000AF7860FFF726F914E07B685B6A002B7D
:1038E80015D07B6803F12403184601F055F9034607
:1038F800002B01D001F02CFA7B689B6C03F1FF329E
:103908007B689A647B689B6C002BE6DC00E000BF58
:103918007B684FF0FF329A64FFF71AF9FFF702F954
:1039280014E07B681B69002B15D07B6803F110033A
:10393800184601F031F90346002B01D001F008FACE
:103948007B685B6C03F1FF327B685A647B685B6C55
:10395800002BE6DC00E000BF7B684FF0FF325A64C2
:10396800FFF7F6F807F10807BD4680BD80B584B0BB
:1039780000AF7860FFF7D6F87B689B6B002B03D10C
:103988004FF00103FB6002E04FF00003FB60FFF71C
:10399800DFF8FB68184607F11007BD4680BD00BF79
:1039A80080B584B000AF78607B68002B02D1FFF748
:1039B800E9F8FEE77B689B6B002B03D14FF001030E
:1039C800FB6002E04FF00003FB60FB68184607F15C
:1039D8001007BD4680BD00BF80B584B000AF7860D9
:1039E800FFF7A0F87B689A6B7B68DB6B9A4203D180
:1039F8004FF00103FB6002E04FF00003FB60FFF7AC
:103A0800A7F8FB68184607F11007BD4680BD00BF40
:103A180080B584B000AF78607B68002B02D1FFF7D7
:103A2800B1F8FEE77B689A6B7B68DB6B9A4203D13F
:103A38004FF00103FB6002E04FF00003FB60FB68FE
:103A4800184607F11007BD4680BD00BF80B485B099
:103A580000AF786039604FF00003FB601FE042F66A
:103A68000C73C2F20103FA6853F83230002B12D1FA
:103A780042F60C73C2F20103FA68396843F832104F
:103A880042F60C72C2F20102FB684FEAC303D31874
:103A98007A685A6006E0FB6803F10103FB60FB6883
:103AA800072BDCD907F11407BD4680BC704700BF5F
:103AB80080B485B000AF78604FF00003FB6019E078
:103AC80042F60C72C2F20102FB684FEAC303D31834
:103AD8005A687B689A4209D142F60C73C2F2010314
:103AE800FA684FF0000143F8321006E0FB6803F172
:103AF8000103FB60FB68072BE2D907F11407BD46F9
:103B080080BC704780B584B000AF786039607B684E
:103B1800FB60FFF707F8FB685B6CB3F1FF3F03D16D
:103B2800FB684FF000025A64FB689B6CB3F1FF3FDF
:103B380003D1FB684FF000029A64FFF709F8FB68AD
:103B48009B6B002B06D1FB6803F1240318463968E8
:103B580000F0F2FFF868FFF7B9FE07F11007BD465D
:103B680080BD00BF80B58AB002AFF860B9603B6025
:103B78001346FB80FB68002B02D1FFF703F8FEE732
:103B8800BB6A042B02D9FEF7FDFFFEE7FB88184647
:103B9800396B01F05BFAB861BB69002B00F0A380B8
:103BA800BB691A6BFB8803F1FF334FEA8303D31811
:103BB8007B617B6923F007037B617B6903F0070363
:103BC800002B02D0FEF7DEFFFEE7FB880093B86902
:103BD800B968BA6A7B6B01F003F97869F9683A68E1
:103BE800FEF7AAFE0246BB691A60FB6A002B02D0E8
:103BF800FB6ABA691A60FEF795FF40F20023C2F229
:103C080000031B6803F1010240F20023C2F2000323
:103C18001A6040F22813C2F200031B68002B0FD170
:103C280040F22813C2F20003BA691A6040F2002376
:103C3800C2F200031B68012B18D101F021F915E02D
:103C480040F20C23C2F200031B68002B0ED140F295
:103C58002813C2F200031B68DA6ABB6A9A4205D8C5
:103C680040F22813C2F20003BA691A6040F2202316
:103C7800C2F200031B6803F1010240F22023C2F2E2
:103C880000031A6040F22023C2F200031A68BB69DD
:103C98001A64BB69DA6A40F20823C2F200031B689F
:103CA8009A4206D9BB69DA6A40F20823C2F20003D5
:103CB8001A60BB69DA6A13464FEA83039B184FEA16
:103CC800830340F22C12C2F200029A18BB6903F176
:103CD800040310461946FFF72DF84FF00103FB6166
:103CE800FEF736FF02E04FF0FF33FB61FB69012B63
:103CF80011D140F20C23C2F200031B68002B0AD03A
:103D080040F22813C2F200031B68DA6ABB6A9A42BF
:103D180001D2FEF7F7FEFB69184607F12007BD46FA
:103D280080BD00BF80B584B000AF7860FEF7FAFEB2
:103D38007B68002B05D140F22813C2F200031B68F0
:103D480000E07B68FB60FB6803F104031846FFF79B
:103D58004FF8FB689B6A002B05D0FB6803F118033A
:103D68001846FFF745F8FB6803F1040340F2D41046
:103D7800C2F200001946FEF7DDFF40F2E813C2F276
:103D880000031B6803F1010240F2E813C2F20003CA
:103D98001A6040F22023C2F200031B6803F10102FB
:103DA80040F22023C2F200031A60FEF7D1FE40F26F
:103DB8000C23C2F200031B68002B09D040F2281321
:103DC800C2F200031B68FA689A4201D1FEF79AFE14
:103DD80007F11007BD4680BD80B586B000AF78609A
:103DE80039604FF000037B617B68002B02D1FEF73E
:103DF800C9FEFEE73B68002B02D1FEF7C3FEFEE7D3
:103E080000F0EEFA40F20423C2F200031B683B61A3
:103E18007B681A683B68D318FB607B681A683B6943
:103E28009A420CD97B681A68FB689A4213D9FA68D7
:103E38003B699A420FD94FF001037B610BE07B6825
:103E48001A68FB689A4203D8FA683B699A4202D911
:103E58004FF001037B617B68FA681A607B69002B6D
:103E68000CD040F22813C2F200031B6803F10403CC
:103E78001846FEF7BDFFF86801F0A2F800F0C2FA94
:103E8800B860BB68002B01D1FEF73CFE07F11807AC
:103E9800BD4680BD80B584B000AF78604FF00003A8
:103EA800FB607B68002B19D000F09AFA40F20423DB
:103EB800C2F200031A687B68D318BB6040F228136B
:103EC800C2F200031B6803F104031846FEF790FFD3
:103ED800B86801F075F800F095FAF860FB68002BF7
:103EE80001D1FEF70FFE07F11007BD4680BD00BFE8
:103EF80080B584B000AF7860FEF714FE7B68002BB5
:103F080005D140F22813C2F200031B6800E07B6869
:103F1800FB60FB68DB6ABB60FEF71AFEBB681846ED
:103F280007F11007BD4680BD80B586B000AF786048
:103F380039604FF000037B613B68042B02D9FEF720
:103F480021FEFEE73B68042B02D94FF004033B60D7
:103F5800FEF7E8FD7B68002B05D140F22813C2F27A
:103F680000031B6800E07B683B613B699B6CFB605E
:103F7800FA683B689A427DD03A68FB689A4214D93D
:103F880040F22813C2F200031B683A699A4217D01C
:103F980040F22813C2F200031B68DA6A3B689A42AF
:103FA8000ED84FF001037B610AE040F22813C2F2F9
:103FB80000031B683A699A4202D14FF001037B6102
:103FC8003B69DB6ABB603B699A6C3B69DB6A9A4276
:103FD80002D13B693A68DA623B693A689A643B689D
:103FE800C3F105023B699A613B695969BA6813468E
:103FF8004FEA83039B184FEA830340F22C12C2F264
:1040080000029B18994202D14FF0010301E04FF0E2
:104018000003002B29D03B6903F104031846FEF77F
:10402800E7FE3B69DA6A40F20823C2F200031B6824
:104038009A4206D93B69DA6A40F20823C2F20003C1
:104048001A603B69DA6A13464FEA83039B184FEA02
:10405800830340F22C12C2F200029A183B6903F162
:10406800040310461946FEF765FE7B69012B01D152
:10407800FEF748FDFEF76CFD07F11807BD4680BD49
:1040880080B584B000AF7860FEF74CFD7B68002BEC
:1040980005D140F22813C2F200031B6800E07B68D8
:1040A800FB60FB6803F104031846FEF7A1FEFB68FA
:1040B8009B6A002B05D0FB6803F118031846FEF72E
:1040C80097FEFB6803F1040340F2EC10C2F2000013
:1040D8001946FEF72FFEFEF73BFD40F22813C2F209
:1040E80000031B68FA689A421FD140F20C23C2F2FF
:1040F80000031B68002B02D0FEF704FD15E040F218
:10410800EC13C2F200031A6840F20023C2F2000363
:104118001B689A4207D140F22813C2F200034FF0FD
:1041280000021A6001E000F01BFC07F11007BD4611
:1041380080BD00BF80B584B000AF78604FF0000349
:10414800FB607B68BB607B68002B02D1FEF71AFD21
:10415800FEE7BB685A6940F2EC13C2F200039A42C8
:1041680002D14FF0010301E04FF00003002B15D0FE
:10417800BB689A6A40F2C013C2F200039A420DD09B
:10418800BB689B6A002B02D14FF0010301E04FF09E
:104198000003002B02D04FF00103FB60FB681846B8
:1041A80007F11007BD4680BD80B584B000AF7860C8
:1041B8007B68FB607B68002B02D1FEF7E3FCFEE71F
:1041C800FB68002B47D040F22813C2F200031B689B
:1041D800FA689A423FD0FEF7A5FCF868FFF7AAFFF5
:1041E8000346012B35D1FB6803F104031846FEF79B
:1041F800FFFDFB68DA6A40F20823C2F200031B687D
:104208009A4206D9FB68DA6A40F20823C2F2000330
:104218001A60FB68DA6A13464FEA83039B184FEA71
:10422800830340F22C12C2F200029A18FB6803F1D1
:10423800040310461946FEF77DFDFB68DA6A40F272
:104248002813C2F200031B68DB6A9A4201D3FEF707
:1042580059FCFEF77DFC07F11007BD4680BD00BF85
:1042680080B586B000AF78604FF000037B617B6853
:104278003B617B68002B02D1FEF784FCFEE7FEF76A
:10428800F5FCFEF77FFCF8603869FFF753FF03463B
:10429800012B49D140F21023C2F200031B68002B06
:1042A80038D13B69DA6A40F22813C2F200031B686E
:1042B800DB6A9A4234BF00230123DBB27B613B698E
:1042C80003F104031846FEF793FD3B69DA6A40F2EE
:1042D8000823C2F200031B689A4206D93B69DA6ACE
:1042E80040F20823C2F200031A603B69DA6A1346F7
:1042F8004FEA83039B184FEA830340F22C12C2F261
:1043080000029A183B6903F1040310461946FEF7A8
:1043180011FD09E03B6903F1180340F2C010C2F235
:1043280000001946FEF706FDF868FEF735FC7B69C4
:10433800184607F11807BD4680BD00BF80B586B096
:1043480004AF4FF0000300934FF0000301934FF0C8
:10435800000302934FF00003039344F6C550C0F6E0
:1043680000004CF68821C0F600014FF082024FF0A1
:104378000003FFF7F7FB78607B68012B02D101F09F
:1043880047F878607B68012B12D1FEF7FBFB40F2FF
:104398000C23C2F200034FF001021A6040F204231A
:1043A800C2F200034FF000021A60FEF713FB05E0AB
:1043B8007B68002B02D1FEF7E5FBFEE707F1080753
:1043C800BD4680BD80B500AFFEF7DCFB40F20C2394
:1043D800C2F200034FF000021A60FEF78DFB80BDA9
:1043E80080B400AF40F21023C2F200031B6803F14F
:1043F800010240F21023C2F200031A60BD4680BCDD
:10440800704700BF80B584B000AF4FF00003FB6079
:104418004FF00003BB6040F21023C2F200031B6898
:10442800002B02D1FEF7AEFBFEE7FEF77BFB40F266
:104438001023C2F200031B6803F1FF3240F210237D
:10444800C2F200031A6040F21023C2F200031B6894
:10445800002B40F08D8040F20023C2F200031B685D
:10446800002B00F0858043E040F2C013C2F2000345
:10447800DB68DB687B607B6803F118031846FEF78E
:10448800B7FC7B6803F104031846FEF7B1FC7B68B0
:10449800DA6A40F20823C2F200031B689A4206D97E
:1044A8007B68DA6A40F20823C2F200031A607B686C
:1044B800DA6A13464FEA83039B184FEA830340F2F4
:1044C8002C12C2F200029A187B6803F1040310460A
:1044D8001946FEF72FFC7B68DA6A40F22813C2F20D
:1044E80000031B68DB6A9A4202D34FF00103BB60EA
:1044F80040F2C013C2F200031B68002BB4D140F293
:104508001423C2F200031B68002B1BD013E000F039
:1045180003F90346002B02D04FF00103BB6040F2C1
:104528001423C2F200031B6803F1FF3240F2142384
:10453800C2F200031A6040F21423C2F200031B689F
:10454800002BE4D1BB68012B06D040F21823C2F23D
:1045580000031B68012B0BD14FF00103FB6040F2F5
:104568001823C2F200034FF000021A60FEF7CAFADD
:10457800FEF7EEFAFB68184607F11007BD4680BD46
:1045880080B582B000AFFEF7CDFA40F20423C2F244
:1045980000031B687B60FEF7DBFA7B68184607F1AF
:1045A8000807BD4680BD00BF80B582B000AFFEF7EA
:1045B8005DFBFEF7E7FA786040F20423C2F20003DD
:1045C8001B683B607868FEF7E7FA3B68184607F116
:1045D8000807BD4680BD00BF80B400AF40F200238D
:1045E800C2F200031B681846BD4680BC704700BF76
:1045F80080B586B000AFF860B9607A604FF000030C
:104608007B614FF005033B61FFF7EAFE40F20023B0
:10461800C2F200031B68BA689A4274D33B6903F17B
:10462800FF333B617B694FEA4313FA68D1183A6953
:1046380013464FEA83039B184FEA830340F22C1278
:10464800C2F200029B18084619464FF0010200F01A
:1046580035FD03467A69D3187B613B69002BDDD1B0
:104668007B694FEA4313FA68D21840F2B813C2F2D2
:1046780000031B68104619464FF0020200F01EFDA9
:1046880003467A69D3187B617B694FEA4313FA685A
:10469800D21840F2BC13C2F200031B681046194638
:1046A8004FF0020200F00AFD03467A69D3187B61D5
:1046B8007B694FEA4313FA68D318184640F2D411BD
:1046C800C2F200014FF0040200F0F8FC03467A69D8
:1046D800D3187B617B694FEA4313FA68D3181846ED
:1046E80040F2EC11C2F200014FF0030200F0E6FCC8
:1046F80003467A69D3187B617B68002B03D07B68FB
:104708004FF000021A60FFF77DFE7B69184607F13B
:104718001807BD4680BD00BF80B586B000AF4FF01A
:1047280000037B6140F21023C2F200031B68002BD8
:1047380040F0F98040F20423C2F200031B6803F141
:10474800010240F20423C2F200031A6040F204237B
:10475800C2F200031B683B613B69002B52D140F257
:10476800B813C2F200031B681B68002B02D0FEF7C7
:1047780009FAFEE740F2B813C2F200031B68FB60B7
:1047880040F2BC13C2F200031A6840F2B813C2F236
:1047980000031A6040F2BC13C2F20003FA681A6000
:1047A80040F21C23C2F200031B6803F1010240F22D
:1047B8001C23C2F200031A6040F2B813C2F20003CD
:1047C8001B681B68002B02D14FF0010301E04FF07A
:1047D8000003002B07D040F21C03C2F200034FF085
:1047E800FF321A600EE040F2B813C2F200031B68F1
:1047F800DB68DB68BB60BB685A6840F21C03C2F226
:1048080000031A6040F21C03C2F200031B683A69F5
:104818009A4270D300E000BF40F2B813C2F200031E
:104828001B681B68002B02D14FF0010301E04FF019
:104838000003002B07D040F21C03C2F200034FF024
:10484800FF321A6057E040F2B813C2F200031B6847
:10485800DB68DB68BB60BB685B687B603A697B6868
:104868009A4206D240F21C03C2F200037A681A6028
:1048780041E0BB6803F104031846FEF7B9FABB68C8
:104888009B6A002B05D0BB6803F118031846FEF796
:10489800AFFABB68DA6A40F20823C2F200031B6869
:1048A8009A4206D9BB68DA6A40F20823C2F20003CA
:1048B8001A60BB68DA6A13464FEA83039B184FEA0B
:1048C800830340F22C12C2F200029A18BB6803F16B
:1048D800040310461946FEF72DFABB68DA6A40F25F
:1048E8002813C2F200031B68DB6A9A4293D34FF085
:1048F80001037B618FE740F22813C2F200031B68B3
:10490800D96A40F22C12C2F200020B464FEA830326
:104918005B184FEA8303D3181B68012B11D94FF09A
:1049280001037B610DE040F21423C2F200031B680F
:1049380003F1010240F21423C2F200031A60FBF7EC
:104948003BFE40F21423C2F200031B68002B01D186
:10495800FBF732FE7B69184607F11807BD4680BD94
:1049680080B582B000AF40F21023C2F200031B688A
:10497800002B07D040F21823C2F200034FF00102C7
:104988001A6093E040F22813C2F200031B681A6809
:1049980040F22813C2F200031B681B6B9A420FD81F
:1049A80040F22813C2F200031A6840F22813C2F238
:1049B80000031B6803F1340310461946FBF70EFE8B
:1049C80040F22813C2F200031B681B6B18464CF612
:1049D8009021C0F600014FF0140206F055FF03467F
:1049E800002B26D040F22813C2F200031A6840F2C6
:1049F8002813C2F200031B6803F13403104619465A
:104A0800FBF7ECFD15E040F20823C2F200031B6837
:104A1800002B02D1FEF7B6F8FEE740F20823C2F2F7
:104A280000031B6803F1FF3240F20823C2F20003BF
:104A38001A6040F20823C2F20003196840F22C12EF
:104A4800C2F200020B464FEA83035B184FEA830366
:104A5800D3181B68002BD6D040F20823C2F20003FB
:104A68001A6813464FEA83039B184FEA830340F200
:104A78002C12C2F200029B187B607B685B685A6844
:104A88007B685A607B685A687B6803F108039A421E
:104A980004D17B685B685A687B685A607B685B688E
:104AA800DA6840F22813C2F200031A6007F1080717
:104AB800BD4680BD80B584B000AF786039607B6842
:104AC800002B02D1FEF75EF8FEE740F22813C2F28F
:104AD80000031B6803F1180378681946FEF74EF9BE
:104AE80040F22813C2F200031B6803F104031846BE
:104AF800FEF77EF93B68B3F1FF3F0ED140F2281371
:104B0800C2F200031B6803F1040340F2EC10C2F286
:104B180000001946FEF70EF90AE040F20423C2F23B
:104B280000031A683B68D318FB60F86800F048FA7D
:104B380007F11007BD4680BD80B584B000AF78602E
:104B480039607B68002B02D1FEF71CF8FEE740F2C3
:104B58002813C2F200031B6803F11803786819468A
:104B6800FEF7E8F840F22813C2F200031B6803F1CD
:104B780004031846FEF73CF940F20423C2F200038E
:104B88001A683B68D318FB60F86800F019FA07F157
:104B98001007BD4680BD00BF80B584B000AF786007
:104BA8007B68DB68DB68BB60BB68002B02D1FDF764
:104BB800E9FFFEE7BB6803F118031846FEF718F98A
:104BC80040F21023C2F200031B68002B2AD1BB68F5
:104BD80003F104031846FEF70BF9BB68DA6A40F2E2
:104BE8000823C2F200031B689A4206D9BB68DA6A36
:104BF80040F20823C2F200031A60BB68DA6A13465F
:104C08004FEA83039B184FEA830340F22C12C2F247
:104C180000029A18BB6803F1040310461946FEF710
:104C280089F809E0BB6803F1180340F2C010C2F22A
:104C380000001946FEF77EF8BB68DA6A40F22813CE
:104C4800C2F200031B68DB6A9A4203D34FF00103E8
:104C5800FB6002E04FF00003FB60FB68184607F1B9
:104C68001007BD4680BD00BF80B582B000AF786038
:104C78007B68002B02D1FDF785FFFEE740F21C237D
:104C8800C2F200031A687B681A6040F20423C2F279
:104C980000031A687B685A6007F10807BD4680BDA3
:104CA80080B584B000AF786039607B68002B02D192
:104CB800FDF768FFFEE73B68002B02D1FDF762FFB6
:104CC800FEE7FDF72FFF40F20423C2F200031B6842
:104CD800BB603B681B68B3F1FF3F03D14FF0000393
:104CE800FB602CE07B681A6840F21C23C2F20003C8
:104CF8001B689A4208D07B685A68BB689A4203D8F6
:104D08004FF00103FB601AE07B685B68BA68D21A4F
:104D18003B681B689A420FD23B681A687B685968DF
:104D2800BB68CB1AD2183B681A607868FFF79CFFFB
:104D38004FF00003FB6002E04FF00103FB60FDF75A
:104D480007FFFB68184607F11007BD4680BD00BF86
:104D580080B400AF40F21823C2F200034FF0010202
:104D68001A60BD4680BC704780B485B000AF7860DB
:104D78007B68002B05D07B68BB60BB685B6CFB6005
:104D880002E04FF00003FB60FB68184607F11407C8
:104D9800BD4680BC704700BF80B485B000AF786066
:104DA80039607B68002B04D07B68FB60FB683A683D
:104DB8005A6407F11407BD4680BC704780B582B0BD
:104DC80000AF786000F0AEF840F22C13C2F2000396
:104DD8001B68012B01D9FDF795FEFBF7F9FBF1E7FD
:104DE80080B586B000AFF860B9607A603B604FF07C
:104DF80000037B6113E0BA687B69D3181A78F968F5
:104E08007B69CB1803F130031A71BA687B69D31830
:104E18001B78002B07D07B6903F101037B617B6959
:104E2800092BE8D900E000BFFB684FF0000283F8C7
:104E38003D207B68042B02D94FF004037B60FB689C
:104E48007A68DA62FB687A689A64FB6803F104039B
:104E58001846FDF761FFFB6803F118031846FDF7D4
:104E68005BFFFB68FA681A617B68C3F10502FB689F
:104E78009A61FB68FA685A6207F11807BD4680BD57
:104E880080B582B000AF4FF000037B6012E07A6813
:104E980013464FEA83039B184FEA830340F22C1210
:104EA800C2F200029B181846FDF716FF7B6803F153
:104EB80001037B607B68042BE9D940F29010C2F2B1
:104EC8000000FDF709FF40F2A410C2F20000FDF750
:104ED80003FF40F2C010C2F20000FDF7FDFE40F2F1
:104EE800D410C2F20000FDF7F7FE40F2EC10C2F257
:104EF8000000FDF7F1FE40F2B813C2F2000340F2E1
:104F08009012C2F200021A6040F2BC13C2F200030F
:104F180040F2A412C2F200021A6007F10807BD4667
:104F280080BD00BF80B582B000AF3DE0FFF758FA02
:104F380040F2D413C2F200031B68002B14BF0023F5
:104F48000123DBB27B60FFF75DFA7B68002B2BD176
:104F5800FDF7E8FD40F2D413C2F20003DB68DB681A
:104F68003B603B6803F104031846FDF741FF40F23C
:104F78000023C2F200031B6803F1FF3240F2002352
:104F8800C2F200031A6040F2E813C2F200031B6881
:104F980003F1FF3240F2E813C2F200031A60FDF792
:104FA800D7FD386800F034F940F2E813C2F2000384
:104FB8001B68002BBAD107F10807BD4680BD00BFAA
:104FC80080B582B000AF786040F22813C2F20003C7
:104FD8001B687A685A6040F20423C2F200031B6817
:104FE8007A689A4210D240F2BC13C2F200031A68DF
:104FF80040F22813C2F200031B6803F104031046B1
:105008001946FDF7BBFE1DE040F2B813C2F20003DB
:105018001A6840F22813C2F200031B6803F1040364
:1050280010461946FDF7AAFE40F21C03C2F200031F
:105038001B687A689A4205D240F21C03C2F2000348
:105048007A681A6007F10807BD4680BD80B584B04C
:1050580000AF03463960FB804FF04C0000F01CFDA8
:10506800F860FB68002B23D03B68002B07D1FB8836
:105078004FEA8303184600F00FFD034600E03B6843
:10508800FA681363FB681B6B002B06D1F86800F005
:10509800B5FD4FF00003FB600AE0FB681A6BFB8864
:1050A8004FEA830310464FF0A5011A4606F004FCA8
:1050B800FB68184607F11007BD4680BD90B58BB058
:1050C80000AFF860B9601346FB714FF000037B62D4
:1050D800BB681B68002B78D0BB683B623B6A5B6887
:1050E8005A683B6A5A603B6A5A683B6A03F108038C
:1050F8009A4204D13B6A5B685A683B6A5A603B6AC9
:105108005B68DB68FB61BB68BB61BB695B685A684D
:10511800BB695A60BB695A68BB6903F108039A42C4
:1051280004D1BB695B685A68BB695A60BB695B6834
:10513800DB687B617B6A4FEA4313FA68D3187A69A4
:105148001A607B6A4FEA4313FA68D3187A6902F146
:1051580034025A607B6A4FEA4313FA68D3187A69B3
:10516800126C9A607B6A4FEA4313FA68D318FA798B
:105178001A737B6A4FEA4313FA68D3187A69D26ABA
:105188001A617B6A4FEA4313FA68D3187A69926CFA
:105198005A617B6A4FEA4313FA68D3184FF000024A
:1051A8009A617B6A4FEA4313FA68D4187B691B6BD0
:1051B800184600F011F80346A3837B6A03F1010344
:1051C8007B627A69FB699A429DD17B6A184607F12E
:1051D8002C07BD4690BD00BF90B482B000AF786088
:1051E8004FF0000406E07B6803F101037B6004F1E3
:1051F80001039CB27B681B78A52BF4D04FEA94037B
:105208009CB22346184607F10807BD4690BC704774
:1052180080B582B000AF78607B681B6B184600F0E1
:10522800EDFC786800F0EAFC07F10807BD4680BD90
:1052380080B483B000AF40F22813C2F200031B68A9
:105248007B607B68184607F10C07BD4680BC704739
:1052580080B483B000AF40F20C23C2F200031B6895
:10526800002B03D14FF000037B600DE040F21023C8
:10527800C2F200031B68002B03D14FF001037B60CF
:1052880002E04FF002037B607B68184607F10C07C9
:10529800BD4680BC704700BF80B584B000AF786061
:1052A8007B68FB607B68002B66D0FB68DA6A40F29B
:1052B8002813C2F200031B68DB6A9A425CD240F2F0
:1052C8002813C2F200031B68DB6AC3F10502FB68FE
:1052D8009A61FB685969FB68DA6A13464FEA8303E7
:1052E8009B184FEA830340F22C12C2F200029B186B
:1052F800994202D14FF0010301E04FF00003002B67
:1053080032D0FB6803F104031846FDF771FD40F243
:105318002813C2F200031B68DA6AFB68DA62FB68CA
:10532800DA6A40F20823C2F200031B689A4206D9DF
:10533800FB68DA6A40F20823C2F200031A60FB68CD
:10534800DA6A13464FEA83039B184FEA830340F255
:105358002C12C2F200029A18FB6803F104031046EB
:105368001946FDF7E7FC07E040F22813C2F20003F4
:105378001B68DA6AFB68DA6207F11007BD4680BD70
:1053880080B584B000AF78607B68FB607B68002BD9
:1053980039D0FB68DA6AFB689B6C9A4233D0FB68A9
:1053A80003F104031846FDF723FDFB689A6CFB68BC
:1053B800DA62FB68DB6AC3F10502FB689A61FB6885
:1053C800DA6A40F20823C2F200031B689A4206D93F
:1053D800FB68DA6A40F20823C2F200031A60FB682D
:1053E800DA6A13464FEA83039B184FEA830340F2B5
:1053F8002C12C2F200029A18FB6803F1040310464B
:105408001946FDF797FC07F11007BD4680BD00BFA0
:1054180080B586B004AF4FF000037B6000F0DCFA83
:1054280040F25423C2F200031B68002B1AD04FF03D
:10543800020300934FF0000301934FF0000302931F
:105448004FF00003039345F21D60C0F600004CF6D0
:10545800A421C0F600014FF482724FF00003FEF75A
:1054680081FB78607B68002B02D1FDF78BFBFEE7A0
:105478007B68184607F10807BD4680BD80B586B031
:1054880000AFF860B9607A603B60BB68002B08D158
:105498004FF000037B61BB68002B21D1FDF772FB45
:1054A800FEE74FF0280000F0F7FA78617B69002BDF
:1054B80016D000F091FA7B69FA681A607B69BA68BD
:1054C8009A617B697A68DA617B693A681A627B69F2
:1054D8003A6A5A627B6903F104031846FDF71CFC1B
:1054E8007B69184607F11807BD4680BD80B588B0AE
:1054F80000AFF860B9607A603B604FF00003FB6171
:1055080040F25423C2F200031B68002B3DD0BB6855
:105518003B617B687B61FB68BB613B68002B25D1E5
:10552800FFF796FE0346012B0FD140F25423C2F237
:1055380000031A6807F1100310461946BA6A4FF0BB
:105548000003FDF709FEF8611FE040F25423C2F2A0
:1055580000031A6807F11003104619464FF00002BD
:105568004FF00003FDF7F8FDF8610EE040F2542318
:10557800C2F200031A6807F11003104619463A6888
:105588004FF00003FDF7A4FEF861FB69184607F128
:105598002007BD4680BD00BF80B586B002AF7860E9
:1055A800396040F24C23C2F200031B68DB68DB68F9
:1055B800FB60FB6803F104031846FDF719FCFB6860
:1055C800DB69012B1ED1FB689A697B68D318F868E0
:1055D80019463A687B6800F0BFF80346012B11D1E1
:1055E8004FF000030093F8684FF000017A684FF01D
:1055F8000003FFF77BFFB860BB68002B02D1FDF703
:10560800C1FAFEE7FB685B6AF868984707F110077C
:10561800BD4680BD80B584B000AF786007F108034F
:10562800184600F043F8F860BB68F868194600F0BF
:1056380003F800F0DBF8F1E780B584B000AF7860DC
:105648003960FEF7CDFE07F10803184600F058F858
:10565800F860BB68002B21D13B68002B0AD17A681F
:10566800FB689A4206D8FEF7CDFE7868F968FFF71E
:1056780093FF17E040F25423C2F200031A687968D6
:10568800FB68CB1A10461946FEF73CFAFEF7BAFE3D
:105698000346002B05D1FDF735FA02E0FEF7B2FE0E
:1056A80000E000BF07F11007BD4680BD80B485B09B
:1056B80000AF786040F24C23C2F200031B681B68FD
:1056C800002B14BF00230123DBB21A467B681A6043
:1056D8007B681B68002B08D140F24C23C2F2000300
:1056E8001B68DB681B68FB6002E04FF00003FB608F
:1056F800FB68184607F11407BD4680BC704700BF19
:1057080080B584B000AF7860FEF73AFFF86040F2E9
:105718005823C2F200031B68FA689A420CD240F27E
:105728005823C2F200031B68184600F0E1F87B68B2
:105738004FF001021A6003E07B684FF000021A6024
:1057480040F25823C2F20003FA681A60FB68184650
:1057580007F11007BD4680BD80B586B000AFF86080
:10576800B9607A603B604FF000037B61FB68BA6800
:105778005A60FB68FA681A61BA687B689A4217D857
:105788007A683B68D21AFB689B699A4203D34FF048
:1057980001037B6124E040F25023C2F200031A683F
:1057A800FB6803F1040310461946FDF7E7FA17E012
:1057B8007A683B689A4207D2BA683B689A4203D330
:1057C8004FF001037B610BE040F24C23C2F200036F
:1057D8001A68FB6803F1040310461946FDF7CEFA70
:1057E8007B69184607F11807BD4680BD80B58AB0A9
:1057F80002AF66E03B69FB61FB695B69002B05D082
:10580800FB6903F104031846FDF7F2FA07F10403F4
:105818001846FFF775FFB861BB68032B4ED801A285
:1058280052F823F03D580008C5580008935800085E
:10583800BD580008FA68FB699B69D218FB68F869CB
:105848001146BA69FFF788FF0346012B38D1FB6977
:105858005B6AF8699847FB69DB69012B30D1FA6804
:10586800FB699B69D3184FF000020092F8694FF06A
:1058780000011A464FF00003FFF738FE78617B6994
:10588800002B1DD1FDF77EF9FEE7FA68FB699A61E6
:10589800FB699B69002B02D1FDF774F9FEE7FB69F0
:1058A8009A69BB69D318F8691946BA69BB69FFF7E1
:1058B80053FF06E0F86900F0A1F902E000BF00E03C
:1058C80000BF40F25423C2F200031A6807F108032C
:1058D800104619464FF000024FF00003FDF76CFD2B
:1058E8000346002B86D107F12007BD4680BD00BFC7
:1058F80080B58AB002AF78604BE040F24C23C2F228
:1059080000031B68DB681B68FB6140F24C23C2F292
:1059180000031B68DB68DB68BB61BB6903F1040338
:105928001846FDF765FABB695B6AB8699847BB69B1
:10593800DB69012B2DD1BB699A69FB69D3187B619F
:105948007A69FB699A4212D9BB697A695A60BB695C
:10595800BA691A6140F24C23C2F200031A68BB69A3
:1059680003F1040310461946FDF708FA11E04FF059
:1059780000030093B8694FF00001FA694FF0000383
:10598800FFF7B4FD38613B69002B02D1FDF7FAF847
:10599800FEE740F24C23C2F200031B681B68002B91
:1059A800ABD140F24C23C2F200031B68FB6040F20B
:1059B8005023C2F200031A6840F24C23C2F20003DB
:1059C8001A6040F25023C2F20003FA681A6007F125
:1059D8002007BD4680BD00BF80B500AFFDF7A2F827
:1059E80040F25423C2F200031B68002B2BD140F273
:1059F8002420C2F20000FDF76FF940F23820C2F20D
:105A08000000FDF769F940F24C23C2F2000340F2AE
:105A18002422C2F200021A6040F25023C2F20003AC
:105A280040F23822C2F200021A604FF00A004FF02A
:105A38000C014FF00002FDF767FA024640F25423CA
:105A4800C2F200031A60FDF783F880BD80B584B008
:105A580000AF78607B68FB60FDF764F8FB685B6902
:105A6800002B0CBF00230123DBB2BB60FDF770F8ED
:105A7800BB68184607F11007BD4680BD80B485B0E5
:105A880000AF78607B68FB60FB681B6A184607F10B
:105A98001407BD4680BC704780B586B000AF7860FB
:105AA8004FF00003FB60FEF79BFC42F66463C2F212
:105AB80001031B68002B01D100F00EF942F6686360
:105AC800C2F201031A687B681340002B40F08880FB
